:100000000C94A5000C94DC000C94DC000C94DC0037
:100010000C94DC000C94DC000C94DC000C94DC00F0
:100020000C94DC000C94DC000C94DC000C94DC00E0
:100030000C94DC000C94DC000C94DC000C94DC00D0
:100040000C94DC000C947B140C94A7140C94D31423
:100050000C94DC000C94DC000C94DC000C94DC00B0
:100060000C94DC000C94CF160C94DC000C94231739
:100070000C94DC000C94DC000C94DC000C94DC0090
:100080000C94DC000C94DC000C94DC000C94DC0080
:100090000C94F9160C94DC000C9451170C94DC00B1
:1000A0000C94DC000C94DC000C94FF140C942B15C5
:1000B0000C9457150C94DC000C94DC000C94DC00C0
:1000C0000C94DC000C94DC000C94DC000C94DC0040
:1000D0000C94DC000C94DC000C94DC000C94DC0030
:1000E0000C94DC000C9485150C94A2030C94DE0A8D
:1000F0000C94E40C0C9493030C946F050C949815D9
:10010000464154414C204552524F523A20424144BC
:100110004953525F766563742063616C6C65642C2F
:1001200020756E70726F63657373656420496E74B9
:100130006572727570742E0A53544F50204578655D
:10014000637574696F6E2E0A0000832D80935007CB
:1001500084B78093510714BE0FB6F894A895809188
:100160006000886180936000109260000FBE1124CF
:100170001FBECFEFD1E2DEBFCDBF00E00CBF13E06A
:10018000A0E0B2E0E0EEF5E300E00BBF02C00790B4
:100190000D92AA3BB107D9F727E0AAEBB3E001C063
:1001A0001D92A035B207E1F70E94DE000C94EE1A12
:1001B0000E9433010C94EE1A0C9463130E9487037F
:1001C0000C94A503FC0120813181293031055CF0BC
:1001D000828193810296059750F4848195810296DD
:1001E000059790F104C0283F4FEF340784F18281D6
:1001F00093818930910574F0A9014E5F5F4F4530BE
:10020000510560F4448155814E5F5F4F4530510583
:1002100008F104C0883F4FEF9407FCF044815581FA
:10022000493051055CF002960597D0F42E5F3F4FA0
:1002300025303105A8F48AE590E00895483F5F4FE6
:100240007CF48AE790E0089588E590E0089588E7D7
:1002500090E0089589E590E0089589E790E0089599
:100260008FEF9FEF08952F923F924F925F926F9280
:100270007F928F929F92AF92BF92CF92DF92EF9236
:10028000FF920F931F93CF93DF93CDB7DEB7E09725
:100290000FB6F894DEBF0FBECDBF8BE0EAE3F2E00D
:1002A000DE01529601900D928A95E1F786E0E5E431
:1002B000F2E0DE01999601900D928A95E1F786E0D1
:1002C000FE01B996DE01119601900D928A95E1F733
:1002D0008BE0FE017296DE01179601900D928A95D1
:1002E000E1F786E02E0123E2420E511CF201282F95
:1002F00011922A95E9F73E019DE1690E711CF30107
:1003000011928A95E9F718AA1FA680E090E00E9452
:10031000A202BE01675D7F4FCE0101960E941A09BD
:10032000019629F48BE492E00E940418B3C088E798
:1003300092E09F938F930E94F0170F900F9008EE1A
:1003400013E09CEE292E92E0392E8AE0882E912C23
:10035000A12CB12CC12CD12CE12CF12CB201CE015D
:1003600001960E9457068F3F2FEF920719F48BE4F6
:1003700092E004C0029649F48DE892E09F938F9337
:100380000E94F0170F900F9085C0B301CE01019627
:100390000E941B078F3FFFEF9F0749F3029661F30F
:1003A0008D8D9E8DA80EB91E8F8D98A1C80ED91E59
:1003B00089A19AA1E80EF91E81E0881A910871F6C8
:1003C000C501B8010E949317FB0178AB6FA7C60166
:1003D000B8010E9493179B017AAB69ABC701B801C2
:1003E0000E9493177CAB6BABEE9FC001EF9F900D0B
:1003F000900D1124229FA001239F500D500D112418
:10040000840F951F669F9001679F300D300D11245A
:10041000820F931F8E37910544F0EFEBF2E0FF93CC
:10042000EF930E94F0170F900F90CE018F960E94CD
:10043000E2008A359105E1F04CF48835910591F0A0
:1004400089359105E9F43F922F9216C089379105BD
:1004500061F08A37910561F08837910589F482EE61
:1004600092E008C088ED92E005C086EF92E002C0FD
:1004700080E093E09F938F930E94F0170F900F906E
:1004800020E030E0A90168EA71E680E090E00E9497
:10049000F00A5BCF81E090E0E0960FB6F894DEBF03
:1004A0000FBECDBFDF91CF911F910F91FF90EF90C5
:1004B000DF90CF90BF90AF909F908F907F906F9084
:1004C0005F904F903F902F90089584E98093BC00F7
:1004D0008091BC0084FDFCCF1092BC00089594EA8A
:1004E0009093BC009091BC0097FFFCCF9091B90015
:1004F000987F983051F09091B900987F903129F011
:100500000E9465028FEF9FEF0895880F682B60931C
:10051000BB0084E88093BC008091BC0087FFFCCFC7
:100520008091B900887F883151F08091B900887F2F
:10053000803429F00E9465028EEF9FEF089580E0DD
:1005400090E00895892B29F062E973E083E00E942E
:100550004A041092BB031092BA038BB183608BB92B
:10056000809164008F77809364008091BC008B7FC2
:100570008093BC008CE08093B8008091B9008C7FA0
:100580008093B9008091B9008093B9008091BC003C
:1005900084608093BC000895EF92FF920F93CF93F5
:1005A000DF93762F7A01E901892B29F062E973E064
:1005B00083E00E944A0400FD2BC0452B61F1209787
:1005C00051F103FF05C0F7019E0194EC44E815C00A
:1005D00061E0872F0E946F0297FFF5CF81EC9FEFBC
:1005E0001FC09093BC008091BC0087FFFCCF80911E
:1005F000BB0081932150310931F02130310589F759
:100600004093BC00F0CF02FD09C00E94650206C005
:1006100080EC9FEF05C084EE9FEF02C080E090E089
:10062000DF91CF910F91FF90EF900895EF92FF929D
:100630000F93CF93DF93762FEA017901892B29F06D
:1006400062E973E083E00E944A0400FD29C020971C
:1006500051F1232B41F103FF03C0FE0124E809C03F
:1006600060E0872F0E946F0297FFF7CF81EC9FEF2A
:1006700022C0CF018C1B9D0B8E159F05BCF4819170
:100680008093BB002093BC008091BC0087FFFCCF0F
:100690008091B900887F883261F383EE9FEF0BC0B1
:1006A00080EC9FEF08C084EE9FEF05C002FF0E9420
:1006B000650280E090E0DF91CF910F91FF90EF9085
:1006C0000895CF93DF931F92CDB7DEB7892B29F022
:1006D00062E973E083E00E944A0481E08983BE01FD
:1006E0006F5F7F4F8AEB93E00E94C90380E090E048
:1006F0000F90DF91CF910895892B29F062E973E083
:1007000083E00E944A048AEB93E00C940C04E1E637
:10071000F0E080E8808310820E9453130E94BA1593
:100720008FB7789408950E9483158CE093E09F938F
:100730008F930E94F0170E9433010F900F9080E07A
:1007400090E008950E94880FFDCF8FB7F89487E45A
:10075000C82E83E0D82EE12CF12C02EA13E02CE025
:1007600030E04FE060E870E08CEB93E00E94B2056F
:100770009CE4C92E93E0D92E03E913E02CE030E08D
:1007800047E060E872E08CE394E00E94B2050E94CA
:100790002B12FF920F931F93CF93DF93EC01FFB6C1
:1007A000F89488819981892B41F48FEF9FEF998389
:1007B0008883F894F7FC789421C0FB01808188231A
:1007C00001F10091E4061091E50663E0C8010E9482
:1007D000C40488819981019641F4C80106969983E1
:1007E0008883F8011782168204C0B801CE010E94E6
:1007F0009105F894F7FC78940E94781281E090E0DB
:1008000005C0F894F7FC789480E090E0DF91CF91F8
:100810001F910F91FF900895FF920F931F93CF9315
:10082000DF93FFB6F894DC01ED91FC91309739F03D
:10083000EF3FBFEFFB0761F4FC0111821082F894D7
:10084000F7FC7894DF91CF911F910F91FF9008955D
:100850008C0180819181D8018D939C93EF01269723
:100860006CE0CE010E94C404F80180819181892B43
:1008700021F48FEF9FEF918380838B8190E0F89438
:10088000F7FC7894DF91CF911F910F91FF900C941A
:1008900055050895EB012091BC063091BD06232B30
:1008A00071F521E030E03093BD062093BC06833023
:1008B00091F40EB6202D0DB6802D90E0922B9F93D3
:1008C0008F9381E593E09F938F930E94F0170F9091
:1008D0000F900F900F90DF93CF9388E693E09F9354
:1008E0008F930E94F01784E893E09F938F930E9468
:1008F000F0170F900F900F900F900F900F908FB7F1
:10090000F8940E9449040E94850FA091E406B091DA
:10091000E5061092E3061092E2062091BE063091A1
:10092000BF0680E090E020FD04C036952795019633
:10093000FACF880F991FFC01EE53F94F0190F08117
:10094000E02D0190F081E02D3697AE17BF07C9F07A
:10095000109741F012968C9112978B3019F48CE01D
:1009600012968C938BE082838481958190932B07E0
:1009700080932A07F093E506E093E40681E090E097
:10098000089580E090E008950F931F93CF93DF9335
:10099000FC0182816B30E0F18B3008F080C09F0158
:1009A0002A5F3F4F838190E0880F991FDC01AE538F
:1009B000B94FCD91DC911197209751F04881598121
:1009C000578346830D90BC91A02D2D933C9302C07C
:1009D00037832683DC01AE53B94F2D933C9381E0DE
:1009E00090E0038002C0880F991F0A94E2F7092E55
:1009F000000CAA0BBB0B0091BE061091BF06209104
:100A0000C0063091C106802B912BA22BB32B3FC087
:100A10008B3008F444C0A381B0E0AA0FBB1FAE53D3
:100A2000B94FCD91DC911197209769F08881998118
:100A3000C817D90719F41D921C9205C0DC018D91CD
:100A40009C91998388832381A22FB0E0AA0FBB1FBA
:100A5000AE53B94F8D919C91892B09F581E090E0BF
:100A600002C0880F991F2A95E2F780959095092E6C
:100A7000000CAA0BBB0B0091BE061091BF06209183
:100A8000C0063091C10680239123A223B323809313
:100A9000BE069093BF06A093C006B093C1066283C2
:100AA000DF91CF911F910F910895E091E406F091AD
:100AB000E50622812B3028F0238130E0821793074E
:100AC00068F480913B0787FF07C081E090E0909336
:100AD000E3068093E20608950C94781208958FB788
:100AE000F894E0912A07F0912B07EE0FFF1FE851D1
:100AF000F94F118210828091E6069091E7060197E6
:100B00009093E7068093E60660E08091E40690917A
:100B1000E5060E94C4041092E5061092E4060E94C5
:100B20002B12FB0122812B3028F062E973E083E075
:100B30000E944A046381AF014A5F5F4FDC012D913F
:100B40003C912115310541F0D901169713967C91FE
:100B5000671710F0C901F2CF37832683FC01518358
:100B6000408308954F925F927F928F929F92AF92AF
:100B7000BF92CF92DF92EF92FF920F931F93CF938A
:100B8000DF93FC012B01522F403158F59B012A5174
:100B90003109EC01C20FD31F53FF08C08C179D070A
:100BA00038F4DC018D939C930296F8CF9183808377
:100BB0009FB6F8948AEE96E0AA24A394B12CDC01A7
:100BC0006D917D91CD01672B71F0BFEFAB1ABB0A20
:100BD00061E2A616B10499F7F89497FC78948FEB2C
:100BE00050C084EE4EC0B701C801752E842E8F010F
:100BF000F501EE0FFF1FE851F94FD183C083BD828D
:100C0000AC82A8010E94F611998388831D8B0C8BFE
:100C1000598E488EDF8ACE8A8B821A821F821E826C
:100C2000198618861B861A861D861C861F861E86B8
:100C30008FEF9FEF998B888B1B8A1A8A8091E6062B
:100C40009091E70601969093E7068093E60670FE82
:100C500005C062E0CE010E94C4040EC06CE0CE016B
:100C60000E94C40472FC08C0F89497FC7894882D04
:100C700090E00E94550503C0F89497FC7894C50154
:100C800001C09FEFDF91CF911F910F91FF90EF90E7
:100C9000DF90CF90BF90AF909F908F907F905F90AC
:100CA0004F90089520E030E0A9010C94F00A4F9293
:100CB0005F926F927F928F929F92AF92BF92CF92EC
:100CC000DF92EF920F931F93CF93DF9300D000D06A
:100CD000CDB7DEB7FC0191859130D9F060F092304C
:100CE00089F0933009F088C0412C512C3AEF632EE3
:100CF00034E4732E14C0412C512C5AE7652E53E472
:100D0000752E0DC0412C512C4AE7642E44E4742EFC
:100D100006C0412C512C2AEF622E23E4722E5B0177
:100D20006F01808191810E9461034C01892B09F040
:100D300068C0F601628170E0E12C06E010E09E01DF
:100D40002F5F3F4F43E450E0808191810E94890FE3
:100D5000F601808191810E947C0369817A817627E6
:100D600067277627072E000C880B990B0E94FD1031
:100D7000A30192010E94891120E03EEF4FEF56E45B
:100D80000E9453100E94C510F501718360836B812E
:100D90007C81762767277627072E000C880B990B16
:100DA0000E94FD10A30192010E94891120E03EEFF4
:100DB0004FEF56E40E9453100E94C510F501738353
:100DC00062836D817E81762767277627072E000C48
:100DD000880B990B0E94FD10A30192010E948911BA
:100DE00020E03EEF4FEF56E40E9453100E94C510E2
:100DF000F5017583648308C09EEF892E99249A9427
:100E000003C088248A94982CC40126960FB6F894BF
:100E1000DEBF0FBECDBFDF91CF911F910F91EF903D
:100E2000DF90CF90BF90AF909F908F907F906F900A
:100E30005F904F9008954F925F926F927F928F9242
:100E40009F92AF92BF92CF92DF92EF920F931F9338
:100E5000CF93DF9300D000D0CDB7DEB7FC019285F1
:100E60009130D9F060F0923089F0933009F088C069
:100E7000412C512C3AE7632E36E4732E14C0412CDA
:100E8000512C5AEF652E54E4752E0DC0412C512C77
:100E90004AEF642E45E4742E06C0412C512C2AE7FB
:100EA000622E25E4722E5B016F01808191810E9488
:100EB00061034C01892B09F068C0F601628170E082
:100EC000E12C06E010E09E012F5F3F4F4BE350E026
:100ED000808191810E94890FF601808191810E9419
:100EE0007C0369817A81762767277627072E000C95
:100EF000880B990B0E94FD10A30192010E94891199
:100F000020E03EEF4FEF56E40E9453100E94C510C0
:100F1000F501718360836B817C8176276727762753
:100F2000072E000C880B990B0E94FD10A301920163
:100F30000E94891120E03EEF4FEF56E40E945310CB
:100F40000E94C510F501738362836D817E817627CF
:100F500067277627072E000C880B990B0E94FD103F
:100F6000A30192010E94891120E03EEF4FEF56E469
:100F70000E9453100E94C510F5017583648308C058
:100F80009EEF892E99249A9403C088248A94982CE1
:100F9000C40126960FB6F894DEBF0FBECDBFDF9119
:100FA000CF911F910F91EF90DF90CF90BF90AF90B6
:100FB0009F908F907F906F905F904F900895EF92E9
:100FC000FF920F931F93CF93DF93FC012185261788
:100FD000F1F06430F8F4162FEC01808191810E94C9
:100FE00061037C01892BD9F4212F220F220F220FBC
:100FF0006A8170E000E04BE150E0888199810E94B5
:101000003B10888199810E947C0319870BC0E12CD9
:10101000F12C08C09EEFE92EFF24FA9403C0EE24C1
:10102000EA94FE2CC701DF91CF911F910F91FF90A1
:10103000EF900895EF92FF920F931F93CF93DF935A
:10104000FC0122852617F1F06430F8F4162FEC012C
:10105000808191810E9461037C01892BD9F4212F29
:10106000220F220F220F6A8170E000E04CE150E075
:10107000888199810E943B10888199810E947C031C
:101080001A870BC0E12CF12C08C09EEFE92EFF243B
:10109000FA9403C0EE24EA94FE2CC701DF91CF91AD
:1010A0001F910F91FF90EF900895CF92DF92EF92F2
:1010B000FF920F931F93CF93DF939B01245031092D
:1010C000253E334008F056C0FC0123853485621765
:1010D000730709F454C0EC0138EEC32E33E0D32E6D
:1010E000C6010E947F171FEF160F808191810E9419
:1010F00061037C01892B09F045C06A8170E000E042
:10110000212F49E150E0888199810E943B10612F95
:1011100070E06F5F7F4FC6010E947F177C876B87EF
:10112000769567956C3B710570F46236710568F4CD
:101130006A32710560F46431710558F46A307105E2
:1011400050F426E009C021E007C022E005C023E0FA
:1011500003C024E001C025E06A8170E000E04AE1BC
:1011600050E0888199810E943B10888199810E947A
:101170007C030BC09EEFE92EFF24FA9406C0E12CFD
:10118000F12C03C0EE24EA94FE2CC701DF91CF912D
:101190001F910F91FF90EF90DF90CF900895EF9205
:1011A000FF920F931F93CF93DF93EC018FEF860F86
:1011B000843668F570E02B853C852617370738F1B3
:1011C0008D85681749F1C9010E947F171FEF160F1F
:1011D000888199810E9461037C01892B01F56A81D4
:1011E00070E000E0212F44E350E0888199810E9463
:1011F0003B10888199810E947C03612F70E06F5FB2
:101200007F4F8B859C850E947F176D870BC09EEF5B
:10121000E92EFF24FA9406C0E12CF12C03C0EE2441
:10122000EA94FE2CC701DF91CF911F910F91FF909F
:10123000EF900895CF92DF92EF92FF920F931F935A
:10124000CF93DF9300D01F92CDB7DEB76C0186E05D
:10125000FB01D60101900D928A95E1F78BE0E4EA5B
:10126000F3E0D601169601900D928A95E1F7F6010A
:10127000808191810E946103F601628170E000E04B
:1012800020E84BE650E0808191810E943B1068EAA3
:1012900071E680E090E00E945206F601628170E003
:1012A00020E04BE650E0808191810E943B10F601E6
:1012B000808191810E947C0363E0C6010E94DF0768
:1012C00060E0C6010E941A08F60164817581C601BA
:1012D0000E945508F601808191810E946103F60108
:1012E000628170E020E048E350E0808191810E94BB
:1012F0003B10F601628170E09E012F5F3F4F4AE68E
:1013000050E0808191810E94DC0F29812F7D29830B
:10131000F601628170E04AE650E0808191810E948E
:101320003B106EEE72E080E090E00E945206F60103
:10133000628170E022E047E350E0808191810E9469
:101340003B10F601638170E09E012F5F3F4F40E04C
:1013500050E0808191810E94DC0F8981883409F0FE
:10136000D6C0F601638170E020E04AE050E0808161
:1013700091810E943B106AEF70E080E090E00E9453
:101380005206F601638170E02FE04AE050E0808170
:1013900091810E943B106AEF70E080E090E00E9433
:1013A0005206F601638170E0E12C03E010E09E013B
:1013B0002F5F3F4F40E150E0808191810E94890F73
:1013C0008981F60186878A8187878B81808B6381FB
:1013D00070E000E020E04AE050E0808191810E94CE
:1013E0003B106AEF70E080E090E00E945206F60148
:1013F000628170E09E012C5F3F4F4AE650E08081A1
:1014000091810E94DC0F2C8120622C83F601628185
:1014100070E04AE650E0808191810E943B106EEEC0
:1014200072E080E090E00E945206F601628170E076
:1014300020E047E350E0808191810E943B10F6015B
:10144000628170E020E444E250E0808191810E945A
:101450003B10F60123812068628170E045E250E094
:10146000808191810E943B10F601628170E023E04F
:1014700046E250E0808191810E943B10F60162813A
:1014800070E026E847E250E0808191810E943B10A5
:10149000F601628170E0238148E250E08081918111
:1014A0000E943B10F601628170E02AE049E250E0C0
:1014B000808191810E943B10F601628170E021E8F9
:1014C0004AE250E0808191810E943B10F6016281E6
:1014D00070E021E044E650E0808191810E943B1061
:1014E000F601628170E023E047E650E0808191815F
:1014F0000E943B10F601628170E020E841E050E07C
:10150000808191810E943B10E12CF12C03C0EE24DC
:10151000EA94FE2CF60180819181E114F10439F006
:101520000E947C038EEFE82EFF24FA9439C00E94BB
:101530007C036AE0C6010E94CF08F6018081918198
:101540000E946103F601628170E000E021E04BE659
:1015500050E0808191810E943B10F601628170E031
:101560009E012F5F3F4F4CE650E0808191810E94A9
:10157000DC0F2981207C2983F601628170E04CE632
:1015800050E0808191810E943B10F6018081918121
:101590000E947C0364ED70E380E090E00E945206BC
:1015A000C7010F900F900F900F90DF91CF911F9177
:1015B0000F91FF90EF90DF90CF9008950C940C0462
:1015C000CF93DF931F92CDB7DEB721E02983BE0111
:1015D0006F5F7F4F0E94C9030F90DF91CF910895F5
:1015E0004F925F926F927F928F929F92AF92BF9233
:1015F000CF92DF92EF92FF920F931F93CF93DF93DF
:10160000CDB7DEB768970FB6F894DEBF0FBECDBF7B
:101610002B013C0149015A0180913B0787FF26C0FD
:10162000232B242B252B29F062E973E083E00E9411
:101630004A0480E090E00E9468144C01A12CB12C77
:1016400073016201EE24FF2480E090E00E946814A0
:10165000A0E0B0E088199909AA09BB09AA27BB270D
:101660008C159D05AE05BF0578F31AC0188E1F8A2C
:101670008EED9AE09C8B8B8B7E0187E1E80EF11C4E
:10168000FE8AED8AC7010E94E00A95018401B30138
:10169000A201CE0101960E94E00EC7010E94E00A5D
:1016A00068960FB6F894DEBF0FBECDBFDF91CF9125
:1016B0001F910F91FF90EF90DF90CF90BF90AF9070
:1016C0009F908F907F906F905F904F9008958F9232
:1016D0009F92AF92BF92CF92DF92EF92FF920F93C1
:1016E0001F93CF93DF93DB0169017A01EC01E8815D
:1016F000F981309709F449C0068117812085318529
:1017000016964D915D916D917C911997041715076F
:101710002607370708F44CC00417150726073707B4
:10172000A1F5428553856485758597018601041B63
:10173000150B260B370BB901A801028113812481F7
:101740003581041715072607370790F1041B150B81
:10175000260B370B1A964D915D916D917C911D97DB
:1017600046015701841A950AA60AB70A12964D91A6
:101770005D916D917C911597481959096A097B090A
:10178000401751076207730798F41196FC93EE9384
:10179000EC01B983A883DF91CF911F910F91FF9046
:1017A000EF90DF90CF90BF90AF909F908F90089573
:1017B000CF019CCFFC01208131812115310579F0C9
:1017C0002617370751F4FB0120813181FC01318359
:1017D0002083FB01118210820895C901EBCF089587
:1017E0002F923F924F925F926F927F928F929F9231
:1017F000AF92BF92CF92DF92EF92FF920F931F931F
:10180000CF93DF93CDB7DEB729970FB6F894DEBF3D
:101810000FBECDBF2FB6F894298280E090E00E94E1
:101820006814209031073090320740903307509071
:101830003407609035077090360780903707909096
:101840003807A0903107B0903207C0903307D0908E
:101850003407E0903507F090360700913707109174
:101860003807A0E0B0E0B201A10166277727841B0A
:10187000950BA60BB70BAA27BB271C012D01612CCA
:10188000712C43018A833B824C825D826E827F820F
:10189000888699869C01A20160E070E080E090E07B
:1018A0000E94E717209331073093320740933307A4
:1018B000509334076093350770933607809337074A
:1018C000909338073980F89437FC78942091310749
:1018D00030913207409133075091340760913507BA
:1018E00070913607809137079091380729960FB687
:1018F000F894DEBF0FBECDBFDF91CF911F910F9146
:10190000FF90EF90DF90CF90BF90AF909F908F901F
:101910007F906F905F904F903F902F9008950F931E
:101920001F93E0912F07F09130073097A9F00281C3
:10193000138124813581011540E814072105310503
:1019400058F482859385A485B585B901A801480F0F
:10195000591F6A1F7B1F0AC020912C0721110FC03D
:10196000AB01BC01415050486F4F7F4F60E070E0C9
:1019700080E090E00E940A1481E080932C071F9180
:101980000F9108950E94F00BB901CA0108950F93B9
:101990001F9300E010E024EE3CE040E950ED63E0EE
:1019A00070E080E090E00E94B6130E94C20C20918B
:1019B000390730913A07232B21F41F910F910C9492
:1019C0008F0C1F910F9108952F923F924F925F922B
:1019D0006F927F928F929F92AF92BF92CF92DF923F
:1019E000EF92FF920F931F93CF93DF9300D0CDB769
:1019F000DEB781E090E090933A0780933907109228
:101A00002C070E94F00BD22EE32EF42E59834B01AB
:101A10005C0120912F07309130073B832A838A8114
:101A20009B81892B09F4AAC0EA81FB818681978179
:101A3000A085B185892B8A2B8B2B29F062E973E075
:101A400083E00E944A048D2D9E2DAF2DB981EA813D
:101A5000FB8142855385648575852C013D01441ABF
:101A6000550A660A770A428153816481758144155B
:101A700055056605770560F08A019B010419150973
:101A800026093709043111052105310508F05CC02C
:101A900080912F07909130072A813B8128173907C1
:101AA00069F6441655066606770690F1AA81BB8151
:101AB0008D919C9111979093300780932F07FD0192
:101AC00012821382148215821A961D921D921D9203
:101AD0001C921D9716861786108A118A1182108211
:101AE0005296ED91FC91539754968D919C915597F8
:101AF0001995E0912F07F0913007FB83EA830E944C
:101B0000F00BD22EE32EF42E59834B015C0187CFCC
:101B10000E94C20CAA81BB811A960D911D912D9134
:101B20003C911D97DC01CB01801B910BA20BB30BE9
:101B3000EA81FB810281138124813581801791071D
:101B4000A207B30728F3B2CFEA81FB810283138394
:101B50002483358382879387A487B5872D2D3E2DD7
:101B60004F2D5981B401C50100E20E94CB17268791
:101B70003787408B518B208131814FCFA0912D072A
:101B8000B0912E07BB83AA832D2D3E2D4F2D598159
:101B9000B401C50100E20E94CB17022FC32E742EA0
:101BA000652EEA81FB81EF2B09F463C08D2C9E2CFE
:101BB000AF2CB980EA81FB8182859385A485B585A8
:101BC00014012501281A390A4A0A5B0A8281938185
:101BD000A481B58182159305A405B50560F44681FD
:101BE00057816085718541505109610971094683AA
:101BF00057836087718782199309A409B509EA811F
:101C0000FB8182839383A483B58382869386A48693
:101C1000B5860687C786708A618A86819781A08586
:101C2000B185892B8A2B8B2BE1F480912D07909124
:101C30002E07E817F90709F001CFBF018DE297E001
:101C40000E94DA0BA50194016A817B818FE297E003
:101C50000E94670B20912D0730912E073B832A832A
:101C6000A0CFAA81BB810D90BC91A02DBB83AA837C
:101C700098CF0E94F00BD22EE32EF42E59834B0105
:101C80005C01E0912F07F09130073097B9F1822F76
:101C90009E2DAF2DB52F42855385648575852C010A
:101CA0003D01441A550A660A770A428153816481CC
:101CB0007581441555056605770508F4AACE4419C3
:101CC000550966097709443151056105710508F424
:101CD000A0CE428353836483758382879387A487CE
:101CE000B5872D2D3E2D4F2D5B2FB401C50100E290
:101CF0000E94CB1726873787408B518B10923A076B
:101D0000109239078091390790913A07892BD9F4BD
:101D10006D2D7E2D8F2D99810F900F900F90DF915B
:101D2000CF911F910F91FF90EF90DF90CF90BF90D8
:101D3000AF909F908F907F906F905F904F903F906B
:101D40002F900C948F0C0F900F900F90DF91CF91EC
:101D50001F910F91FF90EF90DF90CF90BF90AF90C9
:101D60009F908F907F906F905F904F903F902F90BB
:101D700008951F93CF93DF93EC011FB7F8941A8255
:101D80001B821C821D821E821F82188619861A865B
:101D90001B861C861D861E861F86188A198ABC0112
:101DA0008FE297E00E94DA0BBE018DE297E00E947D
:101DB000DA0BF89417FD7894DF91CF911F91089575
:101DC0004F925F926F927F928F929F92AF92BF924B
:101DD000CF92DF92EF92FF920F931F93CF93DF93F7
:101DE000DC015296ED91FC915397EF2B09F47CC0E6
:101DF000280139014A015B01EC010E94B90E41142E
:101E000051046104710499F5B8E28B169104A104A0
:101E1000B10468F580E090E00E9468146C01E12C48
:101E2000F12C80E090E00E946814A0E0B0E08C19F2
:101E30009D09AE09BF09AA27BB2788159905AA05E0
:101E4000BB0578F3EA89FB898C899D89DF91CF9165
:101E50001F910F91FF90EF90DF90CF90BF90AF90C8
:101E60009F908F907F906F905F904F9019941FB7C5
:101E7000F8940E94F00B8A829B82AC82BD824E82D3
:101E80005F826886798669017A012A87DB864C87BA
:101E9000FD8600E20E94CB172E873F87488B598B27
:101EA0009601A701BE01452846284728B1F48FE2D4
:101EB00097E00E94670B80912F0790913007C81719
:101EC000D90779F48091390790913A07892B49F421
:101ED000B601C7010E948F0C04C08DE297E00E94FA
:101EE000670BF89417FD7894DF91CF911F910F91B4
:101EF000FF90EF90DF90CF90BF90AF909F908F902A
:101F00007F906F905F904F9008958FB7F894FFCFB8
:101F100008956F927F928F929F92AF92BF92CF92CD
:101F2000DF92EF920F931F93CF93DF931F921F9235
:101F3000CDB7DEB7FC019E2D5A8349838E2D8C7060
:101F400049F5AE2DA270E1FE05C054274527542760
:101F50005A834983892F8460A11103C041E050E076
:101F600002C042E050E0E92E480159016B013F01F7
:101F7000082F9A01AE014F5F5F4FCF010E941603F9
:101F800097FD0AC00E2D9401A501B601C3010E9460
:101F9000CC0202C080EC9FEF0F900F90DF91CF91A9
:101FA0001F910F91EF90DF90CF90BF90AF909F90D7
:101FB0008F907F906F900895EF920F931F93E02E74
:101FC00001E010E00E94890F1F910F91EF9008959A
:101FD0006F927F928F929F92AF92BF92CF92DF9239
:101FE000EF920F931F93CF93DF931F921F92CDB762
:101FF000DEB7FC0148019E2D5A8349838E2D8C70DB
:1020000041F5AE2DA270E1FE05C0542745275427A7
:102010005A834983092F0460A11103C041E050E0B5
:1020200002C042E050E0192F59016B013F019A01B3
:10203000AE014F5F5F4FCF010E94160397FD0BC0AB
:10204000012F08609401A501B601C3010E94160387
:1020500002C080EC9FEF0F900F90DF91CF911F9106
:102060000F91EF90DF90CF90BF90AF909F908F90A7
:102070007F906F900895EF920F931F93CF93DF930C
:102080001F92CDB7DEB72983E02E01E010E09E015C
:102090002F5F3F4F0E94E80F0F90DF91CF911F916C
:1020A0000F91EF9008950E9467100C944F110E94B9
:1020B000481158F00E94411140F029F45F3F29F087
:1020C0000C94381151110C9483110C943E110E9400
:1020D000601168F39923B1F3552391F3951B550BC8
:1020E000BB27AA2762177307840738F09F5F5F4FEB
:1020F000220F331F441FAA1FA9F335D00E2E3AF02A
:10210000E0E832D091505040E695001CCAF72BD041
:10211000FE2F29D0660F771F881FBB1F2617370792
:102120004807AB07B0E809F0BB0B802DBF01FF27C4
:1021300093585F4F3AF09E3F510578F00C94381158
:102140000C9483115F3FE4F3983ED4F38695779522
:102150006795B795F7959F5FC9F7880F911D96957D
:10216000879597F90895E1E0660F771F881FBB1FD9
:10217000621773078407BA0720F0621B730B840B86
:10218000BA0BEE1F88F7E09508950E94CC10689472
:10219000B1110C94831108950E94681188F09F5723
:1021A00098F0B92F9927B751B0F0E1F0660F771F7B
:1021B000881F991F1AF0BA95C9F714C0B13091F071
:1021C0000E948211B1E008950C948211672F782F3C
:1021D0008827B85F39F0B93FCCF386957795679536
:1021E000B395D9F73EF490958095709561957F4FA2
:1021F0008F4F9F4F0895E89409C097FB3EF4909548
:102200008095709561957F4F8F4F9F4F9923A9F0CF
:10221000F92F96E9BB279395F6958795779567955E
:10222000B795F111F8CFFAF4BB0F11F460FF1BC0A2
:102230006F5F7F4F8F4F9F4F16C0882311F096E935
:1022400011C0772321F09EE8872F762F05C06623E3
:1022500071F096E8862F70E060E02AF09A95660F9C
:10226000771F881FDAF7880F9695879597F9089555
:1022700097F99F6780E870E060E008959FEF80EC39
:10228000089500240A9416161706180609060895DC
:1022900000240A9412161306140605060895092E42
:1022A0000394000C11F4882352F0BB0F40F4BF2BB1
:1022B00011F460FF04C06F5F7F4F8F4F9F4F0895F1
:1022C00057FD9058440F551F59F05F3F71F04795E7
:1022D000880F97FB991F61F09F3F79F087950895CC
:1022E000121613061406551FF2CF4695F1DF08C0EB
:1022F000161617061806991FF1CF86957105610508
:1023000008940895E894BB2766277727CB0197F9AF
:1023100008950E949C110C944F110E94411138F0B5
:102320000E94481120F0952311F00C9438110C9460
:102330003E1111240C9483110E94601170F3959F3B
:10234000C1F3950F50E0551F629FF001729FBB27AC
:10235000F00DB11D639FAA27F00DB11DAA1F649F48
:102360006627B00DA11D661F829F2227B00DA11DFB
:10237000621F739FB00DA11D621F839FA00D611D81
:10238000221F749F3327A00D611D231F849F600DA2
:10239000211D822F762F6A2F11249F5750409AF0CB
:1023A000F1F088234AF0EE0FFF1FBB1F661F771F57
:1023B000881F91505040A9F79E3F510580F00C9422
:1023C00038110C9483115F3FE4F3983ED4F3869563
:1023D00077956795B795F795E7959F5FC1F7FE2BC2
:1023E000880F911D9695879597F90895240F351FAD
:1023F000F90131974FEA408331974EEF40834FE622
:1024000055E031974083319750833197108231974F
:102410008083319790833197108231971082319762
:1024200080E8808331971082319710823197108233
:10243000C90183971292E817F907E1F7F901B497F8
:102440006083319770838AE182938F5F8032E1F7F6
:10245000C9018C9708950E9485048FB778948DB731
:102460009EB72091040230910502821B930B90933A
:102470000102809300028091460790914707892BC3
:1024800041F4809102029091030290934707809358
:102490004607A091E406B091E506CD91CDBFDD9150
:1024A000DEBFFF91EF91DF91CF91BF91AF919F91EF
:1024B0008F917F916F915F914F913F912F911F91DC
:1024C0000F91FF90EF90DF90CF90BF90AF909F90D3
:1024D0008F907F906F905F904F903F902F901F90C4
:1024E0000F900CBE0F900BBE0F900FBE0F90089573
:1024F00080913B0787FD62C00F920FB6F8940F9250
:102500000BB60F920CB60F921F9211242F923F928E
:102510004F925F926F927F928F929F92AF92BF92F3
:10252000CF92DF92EF92FF920F931F932F933F93DF
:102530004F935F936F937F938F939F93AF93BF93CB
:10254000CF93DF93EF93FF93A091E406B091E5065C
:102550000DB60D920EB60D920E948504A091E40670
:10256000B091E506CD91CDBFDD91DEBFFF91EF913A
:10257000DF91CF91BF91AF919F918F917F916F919B
:102580005F914F913F912F911F910F91FF90EF908D
:10259000DF90CF90BF90AF909F908F907F906F9083
:1025A0005F904F903F902F901F900F900CBE0F9018
:1025B0000BBE0F900FBE0F900895089581E090E03C
:1025C0009093E3068093E206089580913B078F770E
:1025D00080933B078091E2069091E306892B09F4F2
:1025E00061C00F920FB6F8940F920BB60F920CB613
:1025F0000F921F9211242F923F924F925F926F92EF
:102600007F928F929F92AF92BF92CF92DF92EF9282
:10261000FF920F931F932F933F934F935F936F936B
:102620007F938F939F93AF93BF93CF93DF93EF935A
:10263000FF93A091E406B091E5060DB60D920EB69B
:102640000D920E948504A091E406B091E506CD911B
:10265000CDBFDD91DEBFFF91EF91DF91CF91BF91B3
:10266000AF919F918F917F916F915F914F913F912A
:102670002F911F910F91FF90EF90DF90CF90BF901F
:10268000AF909F908F907F906F905F904F903F9012
:102690002F901F900F900CBE0F900BBE0F900FBE8F
:1026A0000F9018950895A8950FB6F894A895809165
:1026B0006000886180936000109260000FBE0E94ED
:1026C000AA150C94E1151F920F920FB60F921124C8
:1026D0005F9A60E071E080E00E944A0420913B072D
:1026E000206820933B0721E030E0A901062E02C0BC
:1026F000440F551F0A94E2F7FC01EE0FFF1FE80F8D
:10270000F91F02C0440F551FEA95E2F7E0913C071C
:10271000F0913D074E235F23452BA9F04CE0489FE5
:10272000F001499FF00D1124EA5FFD4F0280F38113
:10273000E02D4081DB01119601C0220FAA95EAF736
:102740002095242320832CE0289FD001299FB00DC1
:102750001124AA5FBD4F1696ED91FC91179718961C
:102760008D919C91199719950C94E5128F929F92D7
:10277000AF92BF92CF92DF92EF92FF920F931F938F
:10278000DC010297D8F4EFEAF3E090E0C12C84E298
:10279000D82E84EFE82EF12C46015701019004C099
:1027A000B694A794979487940A94D2F79F5F84165F
:1027B0009506A606B70629F0953071F78FEF9FEFC3
:1027C0001EC08CE08A9FF0018B9FF00D1124EA5F00
:1027D000FD4FA081B1811C9211961C921197129607
:1027E0001C92129715961C921E921497378326837B
:1027F00011870087928711969C9380E090E01F914B
:102800000F91FF90EF90DF90CF90BF90AF909F908F
:102810008F9008950F931F93CF93DF9363307105CB
:102820000CF04FC0CFB7F8942CE0289FF001299FFF
:10283000F00D1124EA5FFD4F20813181DB011496F8
:10284000AA0FBB1FA20FB31F11965C934E93048176
:102850001581D801DC91AB014F5F5F4F21E030E083
:10286000D90102C0AA0FBB1F4A95E2F7AD015A2F4A
:1028700050955D23D8015C930280F381E02D508157
:10288000452B408302C0220F331F6A95E2F7AC014B
:10289000440F551F840F951F02C0220F331F8A95C6
:1028A000E2F780913C0790913D07282B392B30931C
:1028B0003D0720933C07F894C7FD789480E090E0B2
:1028C00002C08FEF9FEFDF91CF911F910F9108957D
:1028D0002FB7F8943CE0389FF001399FF00D112498
:1028E000EA5FFD4F0190F081E02D84819581F8949D
:1028F00027FD789408951F920F920FB60F9211241E
:102900000BB60F922F933F934F935F936F937F93E9
:102910008F939F93AF93BF93EF93FF9360E070E02B
:1029200080E090E00E946E13FF91EF91BF91AF9114
:102930009F918F917F916F915F914F913F912F91D7
:102940000F900BBE0F900FBE0F901F9018951F9207
:102950000F920FB60F9211240BB60F922F933F9345
:102960004F935F936F937F938F939F93AF93BF9397
:10297000EF93FF9361E070E080E090E00E946E13BF
:10298000FF91EF91BF91AF919F918F917F916F9147
:102990005F914F913F912F910F900BBE0F900FBE03
:1029A0000F901F9018951F920F920FB60F9211243F
:1029B0000BB60F922F933F934F935F936F937F9339
:1029C0008F939F93AF93BF93EF93FF9362E070E079
:1029D00080E090E00E946E13FF91EF91BF91AF9164
:1029E0009F918F917F916F915F914F913F912F9127
:1029F0000F900BBE0F900FBE0F901F9018951F9257
:102A00000F920FB60F9211240BB60F922F933F9394
:102A10004F935F936F937F938F939F93AF93BF93E6
:102A2000EF93FF9360E070E081E090E00E946E130E
:102A3000FF91EF91BF91AF919F918F917F916F9196
:102A40005F914F913F912F910F900BBE0F900FBE52
:102A50000F901F9018951F920F920FB60F9211248E
:102A60000BB60F922F933F934F935F936F937F9388
:102A70008F939F93AF93BF93EF93FF9361E070E0C9
:102A800081E090E00E946E13FF91EF91BF91AF91B2
:102A90009F918F917F916F915F914F913F912F9176
:102AA0000F900BBE0F900FBE0F901F9018951F92A6
:102AB0000F920FB60F9211240BB60F922F933F93E4
:102AC0004F935F936F937F938F939F93AF93BF9336
:102AD000EF93FF9362E070E081E090E00E946E135C
:102AE000FF91EF91BF91AF919F918F917F916F91E6
:102AF0005F914F913F912F910F900BBE0F900FBEA2
:102B00000F901F9018950C94C70CCF93DF931F92D2
:102B1000CDB7DEB761E070E0CE0101960E94D1151D
:102B20008981082E000C990B0F90DF91CF910895A9
:102B3000CF93DF931F92CDB7DEB7898361E070E05A
:102B4000CE0101960E94D41580E090E00F90DF91B5
:102B5000CF9108950E94C015EAE4F7E08CE292E07C
:102B6000938382838EE192E09183808384EB93E070
:102B70000C94041863E087E10E94F3155F980895B0
:102B80000F931F9300E010E020E030E040E855E2B2
:102B900060E070E080E090E00E9447161F910F9186
:102BA000089583EC9FEF0895CF93DF93EB01AB0182
:102BB000BC0180E090E00E94A116CE01DF91CF9190
:102BC000089580E090E00C94A202282F22952F70A7
:102BD00033E0239FC0011124273010F4829608951A
:102BE00083519F4F0895CF93DF93982F9F70C1E03B
:102BF000D0E001C0CC0F9A95EAF76230A9F06330BB
:102C000069F0611120C00E94E515FC012291C09578
:102C10002C232083FC012081C22311C00E94E515D2
:102C2000FC018291C82B0BC00E94E515FC0122918A
:102C30003C2F309523232083FC012081C22BC083AD
:102C400080E090E002C08FEF9FEFDF91CF91089579
:102C500020913B07206820933B07FC01EE0FFF1FEC
:102C6000EA54FC4F0190F081E02D6681880F991F96
:102C7000880F991FDC01A25CB84FED91FC91119770
:102C800012968D919C91139719950C94E512EF92E1
:102C9000FF920F931F93CF93DF93790182309105B9
:102CA00008F046C020E030E0E0913B07E37019F007
:102CB00021503109C9F7FC01EE0FFF1FEE0FFF1F76
:102CC000E25CF84FF182E08213830283880F991F40
:102CD000FC01EA54FC4FC081D1811982188286E040
:102CE0008A83DB01CA0180589B47A14EBF4FE3E0B6
:102CF000880F991FAA1FBB1FEA95D1F79A01AB0154
:102D0000F4E0220F331F441F551FFA95D1F7BC0181
:102D1000CD010E94A717215031093D832C83EF2854
:102D200011F088ED01C088E4898380E090E002C062
:102D30008FEF9FEFDF91CF911F910F91FF90EF9059
:102D40000895CF93DF939C0191E0022E01C0990F6B
:102D50000A94EAF7DB01460F571F220F331FF901D0
:102D6000EA54FC4F9F01A417B507B1F0C081D1818F
:102D7000888185FFFDCF6FB7F89480913B07892B41
:102D800080933B07F89467FD7894E9016881798125
:102D90008D91EB018E83E7CFDF91CF9108951F9244
:102DA0000F920FB60F9211240BB60F922F933F93F1
:102DB0004F935F936F937F938F939F93AF93BF9343
:102DC000EF93FF9380E090E00E942816FF91EF912F
:102DD000BF91AF919F918F917F916F915F914F9133
:102DE0003F912F910F900BBE0F900FBE0F901F9031
:102DF00018951F920F920FB60F9211240BB60F92D7
:102E00002F933F934F935F936F937F938F939F93F2
:102E1000AF93BF93EF93FF9381E090E00E94281659
:102E2000FF91EF91BF91AF919F918F917F916F91A2
:102E30005F914F913F912F910F900BBE0F900FBE5E
:102E40000F901F9018951F920F920FB60F9211249A
:102E50000BB60F922F933F934F935F936F937F9394
:102E60008F939F93AF93BF93EF93FF9380913B0713
:102E70008E7F806880933B070E94E512FF91EF915F
:102E8000BF91AF919F918F917F916F915F914F9182
:102E90003F912F910F900BBE0F900FBE0F901F9080
:102EA00018951F920F920FB60F9211240BB60F9226
:102EB0002F933F934F935F936F937F938F939F9342
:102EC000AF93BF93EF93FF9380913B078D7F806813
:102ED00080933B070E94E512FF91EF91BF91AF9164
:102EE0009F918F917F916F915F914F913F912F9122
:102EF0000F900BBE0F900FBE0F901F901895AA1B3E
:102F0000BB1B51E107C0AA1FBB1FA617B70710F0D4
:102F1000A61BB70B881F991F5A95A9F78095909506
:102F2000BC01CD01089597FB072E16F4009407D03D
:102F300077FD09D00E947F1707FC05D03EF49095DD
:102F400081959F4F0895709561957F4F0895A1E2F7
:102F50001A2EAA1BBB1BFD010DC0AA1FBB1FEE1F13
:102F6000FF1FA217B307E407F50720F0A21BB30B5E
:102F7000E40BF50B661F771F881F991F1A9469F7DA
:102F800060957095809590959B01AC01BD01CF0136
:102F9000089597FB10F8169400080F93083098F0E6
:102FA0000850232F342F452F562F672F782F892F26
:102FB000902DF4CF059497958795779567955795BC
:102FC0004795379527950A95AAF70F9108952A0DE9
:102FD0003B1D4C1D5D1D6E1D7F1D801F911F0895A3
:102FE000CF93DF93CDB7DEB7AE014A5F5F4FFA01F3
:102FF00061917191AF0180914C0790914D070E94B2
:103000003418DF91CF9108950F931F93CF93DF93DF
:10301000E0914C07F0914D07238121FF1BC08C01EB
:10302000D0E0C0E0F80181918F0160914C07709170
:103030004D07DB011896ED91FC911997882331F02B
:103040001995892B79F3DFEFCFEFECCF8AE0199553
:10305000892B19F08FEF9FEF02C08D2F9C2FDF91EE
:10306000CF911F910F9108952F923F924F925F92AF
:103070006F927F928F929F92AF92BF92CF92DF9288
:10308000EF92FF920F931F93CF93DF93CDB7DEB7ED
:103090002B970FB6F894DEBF0FBECDBF6C017B013E
:1030A0008A01FC0117821682838181FFCCC1CE0187
:1030B00001963C01F6019381F70193FD859193FF01
:1030C00081917F01882309F4BAC1853239F493FDD7
:1030D000859193FF81917F01853229F4B60190E0BB
:1030E0000E94541AE7CF912C212C312CFFE1F315CB
:1030F000D8F08B3279F038F4803279F08332A1F451
:10310000232D20611DC08D3261F0803369F4232DA1
:10311000216016C0832D8260382EE32DE4603E2EA0
:103120002AC0F32DF8601DC037FC2DC020ED280FFC
:103130002A3040F08E32B9F436FC81C1232D206450
:10314000322E19C036FE06C08AE0989E200D11244A
:10315000922E11C0EAE02E9E200D1124222EF32D76
:10316000F0623F2E08C08C3621F4832D8068382E03
:1031700002C0883641F4F70193FD859193FF819158
:103180007F018111B3CF982F9F7D9554933028F400
:103190000C5F1F4F9FE399830DC0833631F0833757
:1031A00071F0833509F059C021C0F801808189830D
:1031B0000E5F1F4F88248394912C530113C0280164
:1031C000F2E04F0E511CF801A080B18036FE03C022
:1031D000692D70E002C06FEF7FEFC5010E94491AB0
:1031E0004C018201F32DFF773F2E16C0280122E00B
:1031F000420E511CF801A080B18036FE03C0692D3B
:1032000070E002C06FEF7FEFC5010E943E1A4C01D3
:10321000F32DF0683F2E820133FC1BC0822D90E01D
:1032200088169906B0F4B60180E290E00E94541A24
:103230002A94F4CFF50137FC859137FE81915F0127
:10324000B60190E00E94541A21102A9421E0821ABB
:1032500091088114910471F7E8C0843611F0893621
:1032600041F5F80137FE07C0608171818281938149
:103270000C5F1F4F08C060817181072E000C880B06
:10328000990B0E5F1F4FF32DFF763F2E97FF09C05E
:1032900090958095709561957F4F8F4F9F4FF06807
:1032A0003F2E2AE030E0A3010E94901A882E861853
:1032B00045C0853731F4232D2F7EB22E2AE030E031
:1032C00025C0932D997FB92E8F36C1F018F488351B
:1032D00079F0B5C0803719F0883721F0B0C0E92FF8
:1032E000E061BE2EB4FE0DC0FB2DF460BF2E09C000
:1032F00034FE0AC0292F2660B22E06C028E030E036
:1033000005C020E130E002C020E132E0F801B7FE64
:1033100007C060817181828193810C5F1F4F06C05D
:103320006081718180E090E00E5F1F4FA3010E94D9
:10333000901A882E8618FB2DFF773F2E36FE0DC083
:10334000232D2E7FA22E891458F434FE0BC032FC9C
:1033500009C0832D8E7EA82E05C0B82CA32C03C0D7
:10336000B82C01C0B92CA4FE0FC0FE01E80DF11D60
:103370008081803321F49A2D997EA92E09C0A2FE66
:1033800006C0B394B39404C08A2D867809F0B39430
:10339000A3FC11C0A0FE06C0B21488F4280C922C25
:1033A0009B180EC0B21460F4B60180E290E00E9457
:1033B000541AB394F7CFB21418F42B1802C0982CF7
:1033C000212CA4FE10C0B60180E390E00E94541AA4
:1033D000A2FE17C0A1FC03C088E790E002C088E508
:1033E00090E0B6010CC08A2D867859F0A1FE02C08B
:1033F0008BE201C080E2A7FC8DE2B60190E00E9462
:10340000541A891438F4B60180E390E00E94541AEB
:103410009A94F7CF8A94F301E80DF11D8081B601EB
:1034200090E00E94541A8110F5CF222009F442CE78
:10343000B60180E290E00E94541A2A94F6CFF60179
:103440008681978102C08FEF9FEF2B960FB6F8947D
:10345000DEBF0FBECDBFDF91CF911F910F91FF90C7
:10346000EF90DF90CF90BF90AF909F908F907F9024
:103470006F905F904F903F902F900895FC010590C2
:10348000615070400110D8F7809590958E0F9F1F66
:103490000895FC016150704001900110D8F78095AB
:1034A00090958E0F9F1F08950F931F93CF93DF93D7
:1034B000FB01238121FD03C08FEF9FEF2CC022FF72
:1034C00016C046815781248135814217530744F441
:1034D000A081B1819D012F5F3F4F318320838C9369
:1034E000268137812F5F3F4F3783268314C08B019E
:1034F000EC01FB010084F185E02D1995892BE1F6A3
:10350000D80116968D919C911797019617969C93CA
:103510008E931697CE01DF91CF911F910F91089551
:10352000FA01AA27283051F1203181F1E8946F93F4
:103530006E7F6E5F7F4F8F4F9F4FAF4FB1E03ED09A
:10354000B4E03CD0670F781F891F9A1FA11D680F38
:10355000791F8A1F911DA11D6A0F711D811D911D6B
:10356000A11D20D009F468943F912AE0269F1124E0
:103570003019305D3193DEF6CF010895462F477044
:10358000405D4193B3E00FD0C9F7F6CF462F4F709F
:10359000405D4A3318F0495D31FD4052419302D0FD
:1035A000A9F7EACFB4E0A6959795879577956795A3
:1035B000BA95C9F700976105710508959B01AC01A3
:1035C0000A2E06945795479537952795BA95C9F7CA
:1035D000620F731F841F951FA01D0895F894FFCFDD
:1035E00000005207200080006F003600000000003D
:1035F0000000A00072003900000000000000000080
:10360000000100000000000085150000000000021D
:10361000000000009815000000000101010303E80C
:1036200003640000000000680CE803696620676915
:1036300076656E20493243206973206E6F74206571
:103640006E61626C656420696E20626F61726420D5
:10365000636F6E6669670A006D707520696E6974C4
:10366000206F6E20737563636573730A00202D32BB
:10367000206966206779726F2066756C6C2D7363A4
:10368000616C652072616E676520697320636F6E7F
:10369000666967757265642077726F6E670A002DC0
:1036A0002D2D2D3E2043554245205348414B45206A
:1036B0003C2D2D2D2D2D0A00616E737765722041F2
:1036C0000A00616E7377657220430A00616E73773A
:1036D000657220420A00616E7377657220440A00A9
:1036E0004E46432F627574746F6E0A006D61696E89
:1036F00028293A20546869732069732052494F542D
:1037000021202856657273696F6E3A20323032304C
:103710002E31302D646576656C2D3435332D673050
:1037200036646361290A0069646C65006D61696EC5
:1037300000537461636B20506F696E7465723A2038
:103740003078253034780A002A2A2A2052494F54EA
:10375000206B65726E656C2070616E69633A0A2534
:10376000730A0A002A2A2A2068616C7465642E0A8A
:103770000A004641494C454420415353455254495F
:103780004F4E2E0001010100030000000000000068
:0A3790000306080A0C00C000C80080
:04000003000001BC3C
:00000001FF
